{
  "contractName": "Hotel",
  "abi": [
    {
      "inputs": [
        {
          "internalType": "string",
          "name": "_name",
          "type": "string"
        }
      ],
      "payable": false,
      "stateMutability": "nonpayable",
      "type": "constructor"
    },
    {
      "constant": true,
      "inputs": [],
      "name": "hotelier",
      "outputs": [
        {
          "internalType": "address payable",
          "name": "",
          "type": "address"
        }
      ],
      "payable": false,
      "stateMutability": "view",
      "type": "function"
    },
    {
      "constant": true,
      "inputs": [],
      "name": "getAllRooms",
      "outputs": [
        {
          "internalType": "uint256[]",
          "name": "",
          "type": "uint256[]"
        }
      ],
      "payable": false,
      "stateMutability": "view",
      "type": "function"
    },
    {
      "constant": false,
      "inputs": [
        {
          "internalType": "uint8",
          "name": "_roomID",
          "type": "uint8"
        }
      ],
      "name": "setAvailableRoom",
      "outputs": [],
      "payable": false,
      "stateMutability": "nonpayable",
      "type": "function"
    },
    {
      "constant": false,
      "inputs": [
        {
          "internalType": "uint8",
          "name": "_roomID",
          "type": "uint8"
        }
      ],
      "name": "removeAvailableRoom",
      "outputs": [],
      "payable": false,
      "stateMutability": "nonpayable",
      "type": "function"
    },
    {
      "constant": true,
      "inputs": [
        {
          "internalType": "uint8",
          "name": "_roomID",
          "type": "uint8"
        }
      ],
      "name": "checkAvailableRoom",
      "outputs": [
        {
          "internalType": "bool",
          "name": "",
          "type": "bool"
        }
      ],
      "payable": false,
      "stateMutability": "view",
      "type": "function"
    },
    {
      "constant": false,
      "inputs": [
        {
          "internalType": "string",
          "name": "_name",
          "type": "string"
        },
        {
          "internalType": "uint256",
          "name": "_age",
          "type": "uint256"
        },
        {
          "internalType": "uint8",
          "name": "_roomId",
          "type": "uint8"
        }
      ],
      "name": "makeBooking",
      "outputs": [
        {
          "internalType": "bool",
          "name": "",
          "type": "bool"
        }
      ],
      "payable": true,
      "stateMutability": "payable",
      "type": "function"
    },
    {
      "constant": false,
      "inputs": [
        {
          "internalType": "address payable",
          "name": "client",
          "type": "address"
        }
      ],
      "name": "cancelBooking",
      "outputs": [
        {
          "internalType": "bool",
          "name": "",
          "type": "bool"
        }
      ],
      "payable": false,
      "stateMutability": "nonpayable",
      "type": "function"
    },
    {
      "constant": false,
      "inputs": [],
      "name": "checkIn",
      "outputs": [
        {
          "internalType": "bool",
          "name": "",
          "type": "bool"
        }
      ],
      "payable": false,
      "stateMutability": "nonpayable",
      "type": "function"
    },
    {
      "constant": false,
      "inputs": [],
      "name": "checkOut",
      "outputs": [
        {
          "internalType": "bool",
          "name": "",
          "type": "bool"
        }
      ],
      "payable": false,
      "stateMutability": "nonpayable",
      "type": "function"
    },
    {
      "constant": false,
      "inputs": [],
      "name": "foodService",
      "outputs": [
        {
          "internalType": "bool",
          "name": "",
          "type": "bool"
        }
      ],
      "payable": false,
      "stateMutability": "nonpayable",
      "type": "function"
    },
    {
      "constant": false,
      "inputs": [],
      "name": "foodServiceComplete",
      "outputs": [
        {
          "internalType": "bool",
          "name": "",
          "type": "bool"
        }
      ],
      "payable": false,
      "stateMutability": "nonpayable",
      "type": "function"
    },
    {
      "constant": false,
      "inputs": [],
      "name": "transferMoney",
      "outputs": [
        {
          "internalType": "bool",
          "name": "",
          "type": "bool"
        }
      ],
      "payable": true,
      "stateMutability": "payable",
      "type": "function"
    }
  ],
  "bytecode": "0x60806040526010604051908082528060200260200182016040528015620000355781602001602082028038833980820191505090505b50600290805190602001906200004d929190620001e7565b503480156200005b57600080fd5b506040516200198138038062001981833981810160405260208110156200008157600080fd5b8101908080516040519392919084640100000000821115620000a257600080fd5b83820191506020820185811115620000b957600080fd5b8251866001820283011164010000000082111715620000d757600080fd5b8083526020830192505050908051906020019080838360005b838110156200010d578082015181840152602081019050620000f0565b50505050905090810190601f1680156200013b5780820380516001836020036101000a031916815260200191505b5060405250505080600190805190602001906200015a92919062000239565b5033600360006101000a81548173ffffffffffffffffffffffffffffffffffffffff021916908373ffffffffffffffffffffffffffffffffffffffff16021790555060008090505b600160028054905003811015620001df57600060028281548110620001c357fe5b90600052602060002001819055508080600101915050620001a2565b5050620002e8565b82805482825590600052602060002090810192821562000226579160200282015b828111156200022557825182559160200191906001019062000208565b5b509050620002359190620002c0565b5090565b828054600181600116156101000203166002900490600052602060002090601f016020900481019282601f106200027c57805160ff1916838001178555620002ad565b82800160010185558215620002ad579182015b82811115620002ac5782518255916020019190600101906200028f565b5b509050620002bc9190620002c0565b5090565b620002e591905b80821115620002e1576000816000905550600101620002c7565b5090565b90565b61168980620002f86000396000f3fe6080604052600436106100a75760003560e01c8063823946941161006457806382394694146101fe5780639b206571146102675780639de6449d146102be578063b74df331146102ed578063cba5751c146103d7578063f794cf2d14610406576100a7565b8063183ff085146100ac57806320da5f3f146100db57806320f5f8271461010a57806329d623a9146101605780634b3b1c981461019e5780636cee6d77146101dc575b600080fd5b3480156100b857600080fd5b506100c1610472565b604051808215151515815260200191505060405180910390f35b3480156100e757600080fd5b506100f0610649565b604051808215151515815260200191505060405180910390f35b34801561011657600080fd5b506101466004803603602081101561012d57600080fd5b81019080803560ff169060200190929190505050610757565b604051808215151515815260200191505060405180910390f35b34801561016c57600080fd5b5061019c6004803603602081101561018357600080fd5b81019080803560ff1690602001909291905050506107cb565b005b3480156101aa57600080fd5b506101da600480360360208110156101c157600080fd5b81019080803560ff169060200190929190505050610899565b005b6101e4610a67565b604051808215151515815260200191505060405180910390f35b34801561020a57600080fd5b5061024d6004803603602081101561022157600080fd5b81019080803573ffffffffffffffffffffffffffffffffffffffff169060200190929190505050610b7b565b604051808215151515815260200191505060405180910390f35b34801561027357600080fd5b5061027c610d80565b604051808273ffffffffffffffffffffffffffffffffffffffff1673ffffffffffffffffffffffffffffffffffffffff16815260200191505060405180910390f35b3480156102ca57600080fd5b506102d3610da6565b604051808215151515815260200191505060405180910390f35b6103bd6004803603606081101561030357600080fd5b810190808035906020019064010000000081111561032057600080fd5b82018360208201111561033257600080fd5b8035906020019184600183028401116401000000008311171561035457600080fd5b91908080601f016020809104026020016040519081016040528093929190818152602001838380828437600081840152601f19601f82011690508083019250505050505050919291929080359060200190929190803560ff169060200190929190505050610eb4565b604051808215151515815260200191505060405180910390f35b3480156103e357600080fd5b506103ec611270565b604051808215151515815260200191505060405180910390f35b34801561041257600080fd5b5061041b61137e565b6040518080602001828103825283818151815260200191508051906020019060200280838360005b8381101561045e578082015181840152602081019050610443565b505050509050019250505060405180910390f35b6000600115156000803373ffffffffffffffffffffffffffffffffffffffff1673ffffffffffffffffffffffffffffffffffffffff16815260200190815260200160002060000160019054906101000a900460ff1615151461051f576040517f08c379a00000000000000000000000000000000000000000000000000000000081526004018080602001828103825260268152602001806115016026913960400191505060405180910390fd5b600115156000803373ffffffffffffffffffffffffffffffffffffffff1673ffffffffffffffffffffffffffffffffffffffff16815260200190815260200160002060030160009054906101000a900460ff16151514156105e8576040517f08c379a000000000000000000000000000000000000000000000000000000000815260040180806020018281038252601e8152602001807f53656e6465722068617320616c726561647920636865636b656420696e21000081525060200191505060405180910390fd5b60016000803373ffffffffffffffffffffffffffffffffffffffff1673ffffffffffffffffffffffffffffffffffffffff16815260200190815260200160002060030160006101000a81548160ff0219169083151502179055506001905090565b6000600115156000803373ffffffffffffffffffffffffffffffffffffffff1673ffffffffffffffffffffffffffffffffffffffff16815260200190815260200160002060030160019054906101000a900460ff161515146106f6576040517f08c379a00000000000000000000000000000000000000000000000000000000081526004018080602001828103825260368152602001806114cb6036913960400191505060405180910390fd5b60008060003373ffffffffffffffffffffffffffffffffffffffff1673ffffffffffffffffffffffffffffffffffffffff16815260200190815260200160002060030160016101000a81548160ff0219169083151502179055506001905090565b6000806000905060008090505b6001600280549050038110156107a8578360ff166002828154811061078557fe5b9060005260206000200154141561079b57600191505b8080600101915050610764565b506001151581151514156107c05760019150506107c6565b60009150505b919050565b600080905060008090505b600160028054905003811015610837578260ff16600282815481106107f757fe5b9060005260206000200154141561082a576001915060006002828154811061081b57fe5b90600052602060002001819055505b80806001019150506107d6565b506001151581151514610895576040517f08c379a000000000000000000000000000000000000000000000000000000000815260040180806020018281038252602881526020018061147c6028913960400191505060405180910390fd5b5050565b600080905060008090505b6001600280549050038160ff1610156108ee578260ff1660028260ff16815481106108cb57fe5b906000526020600020015414156108e157600191505b80806001019150506108a4565b50600360009054906101000a900473ffffffffffffffffffffffffffffffffffffffff1673ffffffffffffffffffffffffffffffffffffffff163373ffffffffffffffffffffffffffffffffffffffff1614610995576040517f08c379a000000000000000000000000000000000000000000000000000000000815260040180806020018281038252602a8152602001806115f5602a913960400191505060405180910390fd5b60001515811515146109f2576040517f08c379a00000000000000000000000000000000000000000000000000000000081526004018080602001828103825260238152602001806115276023913960400191505060405180910390fd5b60008090505b6001600280549050038160ff161015610a6257600060028260ff1681548110610a1d57fe5b90600052602060002001541415610a55578260ff1660028260ff1681548110610a4257fe5b9060005260206000200181905550610a62565b80806001019150506109f8565b505050565b6000600360009054906101000a900473ffffffffffffffffffffffffffffffffffffffff1673ffffffffffffffffffffffffffffffffffffffff163373ffffffffffffffffffffffffffffffffffffffff1614610b0f576040517f08c379a00000000000000000000000000000000000000000000000000000000081526004018080602001828103825260278152602001806114a46027913960400191505060405180910390fd5b600360009054906101000a900473ffffffffffffffffffffffffffffffffffffffff1673ffffffffffffffffffffffffffffffffffffffff166108fc479081150290604051600060405180830381858888f19350505050158015610b77573d6000803e3d6000fd5b5090565b6000600360009054906101000a900473ffffffffffffffffffffffffffffffffffffffff1673ffffffffffffffffffffffffffffffffffffffff163373ffffffffffffffffffffffffffffffffffffffff1614610c23576040517f08c379a000000000000000000000000000000000000000000000000000000000815260040180806020018281038252603681526020018061161f6036913960400191505060405180910390fd5b600015156000808473ffffffffffffffffffffffffffffffffffffffff1673ffffffffffffffffffffffffffffffffffffffff16815260200190815260200160002060030160009054906101000a900460ff16151514610cce576040517f08c379a000000000000000000000000000000000000000000000000000000000815260040180806020018281038252602981526020018061154a6029913960400191505060405180910390fd5b60008060003373ffffffffffffffffffffffffffffffffffffffff1673ffffffffffffffffffffffffffffffffffffffff16815260200190815260200160002060000160016101000a81548160ff0219169083151502179055508173ffffffffffffffffffffffffffffffffffffffff166108fc674563918244f400009081150290604051600060405180830381858888f19350505050158015610d76573d6000803e3d6000fd5b5060019050919050565b600360009054906101000a900473ffffffffffffffffffffffffffffffffffffffff1681565b6000600115156000803373ffffffffffffffffffffffffffffffffffffffff1673ffffffffffffffffffffffffffffffffffffffff16815260200190815260200160002060030160009054906101000a900460ff16151514610e53576040517f08c379a00000000000000000000000000000000000000000000000000000000081526004018080602001828103825260348152602001806115736034913960400191505060405180910390fd5b60016000803373ffffffffffffffffffffffffffffffffffffffff1673ffffffffffffffffffffffffffffffffffffffff16815260200190815260200160002060030160016101000a81548160ff0219169083151502179055506001905090565b600080845111610f2c576040517f08c379a00000000000000000000000000000000000000000000000000000000081526004018080602001828103825260158152602001807f4e616d652063616e6e6f7420626520656d70747921000000000000000000000081525060200191505060405180910390fd5b6012831015610fa3576040517f08c379a00000000000000000000000000000000000000000000000000000000081526004018080602001828103825260148152602001807f56697369746f7220697320756e6465726167652100000000000000000000000081525060200191505060405180910390fd5b674563918244f40000341115611004576040517f08c379a00000000000000000000000000000000000000000000000000000000081526004018080602001828103825260228152602001806115a76022913960400191505060405180910390fd5b60008060003373ffffffffffffffffffffffffffffffffffffffff1673ffffffffffffffffffffffffffffffffffffffff16815260200190815260200160002060020154146110bb576040517f08c379a000000000000000000000000000000000000000000000000000000000815260040180806020018281038252601c8152602001807f53656e64657220616c726561647920686173206120626f6f6b696e670000000081525060200191505060405180910390fd5b60016000803373ffffffffffffffffffffffffffffffffffffffff1673ffffffffffffffffffffffffffffffffffffffff16815260200190815260200160002060000160016101000a81548160ff021916908315150217905550836000803373ffffffffffffffffffffffffffffffffffffffff1673ffffffffffffffffffffffffffffffffffffffff168152602001908152602001600020600101908051906020019061116a9291906113d6565b50826000803373ffffffffffffffffffffffffffffffffffffffff1673ffffffffffffffffffffffffffffffffffffffff1681526020019081526020016000206002018190555060008060003373ffffffffffffffffffffffffffffffffffffffff1673ffffffffffffffffffffffffffffffffffffffff16815260200190815260200160002060030160006101000a81548160ff021916908315150217905550816000803373ffffffffffffffffffffffffffffffffffffffff1673ffffffffffffffffffffffffffffffffffffffff16815260200190815260200160002060000160006101000a81548160ff021916908360ff160217905550600190509392505050565b6000600115156000803373ffffffffffffffffffffffffffffffffffffffff1673ffffffffffffffffffffffffffffffffffffffff16815260200190815260200160002060030160009054906101000a900460ff1615151461131d576040517f08c379a000000000000000000000000000000000000000000000000000000000815260040180806020018281038252602c8152602001806115c9602c913960400191505060405180910390fd5b60008060003373ffffffffffffffffffffffffffffffffffffffff1673ffffffffffffffffffffffffffffffffffffffff16815260200190815260200160002060030160006101000a81548160ff0219169083151502179055506001905090565b606060028054806020026020016040519081016040528092919081815260200182805480156113cc57602002820191906000526020600020905b8154815260200190600101908083116113b8575b5050505050905090565b828054600181600116156101000203166002900490600052602060002090601f016020900481019282601f1061141757805160ff1916838001178555611445565b82800160010185558215611445579182015b82811115611444578251825591602001919060010190611429565b5b5090506114529190611456565b5090565b61147891905b8082111561147457600081600090555060010161145c565b5090565b9056fe5468657265206973206e6f20746869732074797065206f6620726f6f6d20617661696c61626c652e4f6e6c792074686520686f74656c6965722063616e207265636569766520746865206d6f6e657953656e64657220686173206e6f74206f72646572656420666f6f6420736572766963652c2063616e6e6f742063616e63656c20697421426f6f6b696e67206973206e6f742076616c69642c2063616e6e6f7420636865636b20696e21546865726520617265206578697374696e6720726f6f6d7320617661696c61626c652e53656e6465722068617320616c726561647920636865636b656420696e2c206e6f20726566756e642153656e64657220686173206e6f7420636865636b656420696e2c2063616e6e6f742063616c6c20666f6f6420736572766963652153656e64657220646f6573206e6f74206861766520656e6f756768206d6f6e65792153656e64657220686173206e6f7420636865636b656420696e2c2063616e6e6f7420636865636b206f7574214f6e6c792074686520686f74656c6965722063616e2073657420617661696c61626c6520726f6f6d732e4f6e6c792074686520686f74656c6965722063616e2063616e63656c20626f6f6b696e677320616e6420726566756e64206d6f6e6579a265627a7a7231582062ea21f2973d60d5d8240246c59222e44f1b4a8deb2fdf884a24d0a8983792f964736f6c63430005100032",
  "source": "pragma solidity >=0.4.21 <0.7.0;\n \ncontract Hotel{\n \n    // One booking per address\n    mapping (address => HotelBooking) bookings;\n    string name;\n    // An array to save available room list\n    uint[] availableRoom = new uint[](16);\n    // Hotelier as the contract creator\n    address payable public hotelier;\n    // All rooms cost 0.1 ETH\n    uint constant roomPrice = 5000000000000000000;  \n \n    constructor(string memory _name) public {\n       name = _name;\n       hotelier = msg.sender;\n        for (uint i=0;i < availableRoom.length-1;i++){\n                availableRoom[i] = 0;\n        }\n    }\n\n    function getAllRooms() external view returns (uint[] memory){\n        \n        return availableRoom;\n     \n     }\n\n    \n    \n    struct HotelBooking{\n        uint8 roomId;\n        bool isValidBooking;\n        string visitorName;\n        uint visitorAge;\n        bool hasCheckedIn;\n        bool calledFoodService;\n    }\n   \n   // For hotelier to set available room according to room id\n   function setAvailableRoom(uint8 _roomID) public {\n        bool duplicate = false;\n        for (uint8 i=0;i < availableRoom.length-1;i++){\n            if (availableRoom[i] == _roomID){\n                duplicate = true;\n            }\n        }\n        require(msg.sender == hotelier, \"Only the hotelier can set available rooms.\");\n        require(duplicate == false, \"There are existing rooms available.\");\n        for (uint8 j=0;j < availableRoom.length-1;j++){\n            if(availableRoom[j] == 0){\n                availableRoom[j] = _roomID;\n                break;\n            }\n        }\n    }\n    \n    function removeAvailableRoom(uint8 _roomID) public {\n        bool roomAvailable = false;\n        // Search existing roomList\n        for (uint i=0;i < availableRoom.length-1;i++){\n            if (availableRoom[i] == _roomID){\n                roomAvailable = true;\n                availableRoom[i] = 0;\n            }\n        }\n        require(roomAvailable == true, \"There is no this type of room available.\");\n    }\n    \n    function checkAvailableRoom(uint8 _roomID) public view returns (bool){\n        bool roomAvailable = false;\n        for (uint i=0;i < availableRoom.length-1;i++){\n            if (availableRoom[i] == _roomID){\n                roomAvailable = true;\n            }\n        }\n        if (roomAvailable == true){\n            return true;\n        }else{\n            return false;\n        }\n    }\n   \n    function makeBooking(string memory _name, uint _age, uint8 _roomId) public payable returns (bool){\n        require(bytes(_name).length > 0, \"Name cannot be empty!\");\n        require(_age >= 18, \"Visitor is underage!\");\n        require(msg.value <= roomPrice, \"Sender does not have enough money!\");\n        require(bookings[msg.sender].visitorAge == 0, \"Sender already has a booking\");\n        bookings[msg.sender].isValidBooking = true;\n        bookings[msg.sender].visitorName = _name;\n        bookings[msg.sender].visitorAge = _age;\n        bookings[msg.sender].hasCheckedIn = false;\n        bookings[msg.sender].roomId = _roomId;\n        return true;\n    }\n    \n    function cancelBooking(address payable client) public returns(bool){\n        require(msg.sender == hotelier, \"Only the hotelier can cancel bookings and refund money\");\n        require(bookings[client].hasCheckedIn == false, \"Sender has already checked in, no refund!\");\n        bookings[msg.sender].isValidBooking = false;\n        client.transfer(roomPrice);\n        return true;\n    }\n\n    function checkIn() public returns(bool){\n        require(bookings[msg.sender].isValidBooking == true, \"Booking is not valid, cannot check in!\");\n        require(bookings[msg.sender].hasCheckedIn != true, \"Sender has already checked in!\");\n        bookings[msg.sender].hasCheckedIn = true;\n        return true;\n    }\n    \n    function checkOut() public returns(bool){\n        require(bookings[msg.sender].hasCheckedIn == true, \"Sender has not checked in, cannot check out!\");\n        bookings[msg.sender].hasCheckedIn = false;\n        return true;\n    }\n \n    function foodService() public returns(bool){\n        require(bookings[msg.sender].hasCheckedIn == true, \"Sender has not checked in, cannot call food service!\");\n        bookings[msg.sender].calledFoodService = true;\n        return true;\n    }\n    \n    function foodServiceComplete() public returns(bool){\n        require(bookings[msg.sender].calledFoodService == true, \"Sender has not ordered food service, cannot cancel it!\");\n        bookings[msg.sender].calledFoodService = false;\n        return true;\n    }\n    \n    function transferMoney() public payable returns (bool){\n        require(msg.sender == hotelier, \"Only the hotelier can receive the money\");\n        hotelier.transfer(address(this).balance);\n    }\n}",
  "sourcePath": "C:\\Users\\Teju\\Desktop\\hotel-booking-blockchain-master\\hotel-booking-blockchain-master\\contracts\\Hotel.sol",
  "compiler": {
    "name": "solc",
    "version": "0.5.16+commit.9c3226ce.Emscripten.clang"
  },
  "schemaVersion": "3.4.13",
  "updatedAt": "2023-03-31T09:37:08.843Z",
  "networkType": "ethereum",
  "devdoc": {
    "methods": {}
  },
  "userdoc": {
    "methods": {}
  }
}